
:1000000000000000000000000000000000000000F0
:1000100000000000000000000000000000000000E0
:1000200000000000000000000000000000000000D0
:1000300000000000000000000000000000000000C0
:1000400000000000000000000000000000000000B0
:1000500000000000000000000000000000000000A0
:100060000000000000000000000000000000000090
:100070000000000000000000000000000000000080
:100080000000000000000000000000000000000070
:100090000000000000000000000000000000000060
:1000A0000000000000000000000000000000000050
:1000B0000000000000000000000000000000000040
:1000C0000000000000000000000000000000000030
:1000D0000000000000000000000000000000000020
:1000E0000000000000000000000000000000000010
:1000F0000000000000000000000000000000000000
:10010000214601360121470136007EFE09D2190140
:100110002146017E17C20001FF5F16002148011928
:10012000194E79234623965778239EDA3F01B2CAA7
:100130003F0156702B5E712B722B732146013421C7
:1001400000000000000000000000000000000000AF
:10015000000000000000000000000000000000009F
:10016000000000000000000000000000000000008F
:10017000000000000000000000000000000000007F
:105D000000000000000000006BB8FB2DFC7F0000CD
:105D10002D003D00000000008D000000000000008C
:105D200050A7750000000000000000000000000007
:105D30000000000000000000000000000000000063
:105D40000000000000000000400E190000000000EC
:105D5000000000000000000000001900000000002A
:105D6000B002190000000000000000000000000068
:105D70004000000000000000C00C190000000000FE
:105D800038A9FFFF00000000000000000000000034
:105D900000000000000000004000000000000000C3
:105DA0002C000000000000001000000000000000B7
:105DB000000075000000000099A9FFFF000000002E
:105DC0000400000000000000C7B3FB2DFC7F0000B2
:105DD000000019000000000000000000FC7F00002F
:105DE0002C00000000000000000000000000000087
:105DF000040000000000000004000000000000009B
:105E000000010000020000002A0000002A0000003B
:105E100015000000040000002A0008020000000035
:105E200080AAFFFF0000000000000000000000004A
:105E30000000000000000000000000000000000062
:105E400008000A0000000000A0810B2EFC7F00006B
:105E50000000000000000000000000000000000042
:105E60000000000000000000000000002A00000008
:105E7000040100000000000000000000000000001D
:105E80000000000000000000000000000000000012
:105E900000000000000000002E9A3346A6330000E8
:105EA00010D20A2EFC7F0000E0ADFFFF00000000D2
:105EB00000000000000000002C00000000000000B6
:105EC00000000000000000000800000000000000CA
:105ED0002A0000000000000038B2FA2DFC7F00000C
:105EE00000000000000000000000000000000000B2
:105EF000000000000000000000000E800100000013
:105F000030AAFFFF0000000060AAFFFF00000000B1
:105F1000000000000200000080AAFFFF0000000057
:105F20000800000000000000080000000000000061
:105F30002A0008020000000080AAFFFF0000000005
:105F4000060000000000000000000000000000004B
:105F500028AEFFFF000000008CABFFFF0000000038
:105F60005C005C002E005C004D006F0075006E0050
:105F7000740050006F0069006E0074004D006100F5
:105F80006E00610067006500720000000000000004
:105F90000000000000000000000000000000000001
:105FA00000000000000000000000000000000000F1
:105FB00000000000000000000000000000000000E1
:105FC00000000000000000000000000000000000D1
:105FD00000000000000000000000000000000000C1
:105FE00000000000000000000000000000000000B1
:105FF00000000000000000000000000000000000A1
:106000000000000000000000000000000000000090
:106010000000000000000000000000000000000080
:106020000000000000000000000000000000000070
:106030000000000000000000000000000000000060
:106040000000000000000000000000000000000050
:106050000000000000000000000000000000000040
:106060000000000000000000000000000000000030
:1060700000000000000000004CDFFB2DFC7F000052
:106080000000000000000000000000000000000010
:1060900000000000000000004CDFFB2DFC7F000032
:1060A00000000000000000000000000000000000F0
:1060B0000000750000000000E8E47500000000002A
:1060C0000000000000000000D0E2750000000000A9
:1060D00000000000000000008C0000000000000034
:1060E00000E2750000000000F0E475000000000010
:1060F000000000000000000001000000000000009F
:10610000E0E47500000000002E0000000000000028
:106110000000000000000000FF030000000000007D
:1061200050017500000000000000000000000000A9
:106130000C00000000000000FF0300000000000051
:10614000E0E4750000000000000000000000000016
:106150008C00000000000000800000000000000033
:106160005001750000000000AE00000000000000BB
:10617000E07D7500000000008000000000000000CD
:1061800050017500000000008C00000000000000BD
:10619000DC7D7500000000003300003300000000CB
:1061A000E0E47500000000009164FB2DFC7F00001E
:1061B000000075000000000000000000000000006A
:1061C000A0E0750000000000AE000000000000002C
:1061D000AE00000000000000AE0000000000000063
:1061E0008E983346A6330000200200000000000015
:1061F0000101FFFF0000000000000000000000009F
:10620000F20000000000000020020000000000007A
:10621000B0E0750000000000D0008C00000000001D
:106220000C00000001000000D475750000000000A3
:10623000F20000000000000000000000000000006C
:106240000000000000000000030000030000000048
:10625000000000000000000022000000000000001C
:10626000B002190000000000A0E07500000000006E
:1062700040000000000000001100001100000000BC
:10628000AE00000000000000000000000000000060
:10629000D87D750000000000F20000000000000042
:1062A00020020000000000001802000000000000B2
:1062B00000000000000000000000000000000000DE
:1062C0002002000000000000F200000000000000BA
:1062D0000400000000000000AE0000AE000000005E
:1062E000220000000000000033000033FC7F0000AB
:1062F0000000750000000000030000030000000023
:1063000010020000000000008C00008C0000000063
:10631000400475000000000044AEFFFF00000000D4
:10632000000000000300000060B7750000000000DE
:106330001300000000000000C0E275000000000033
:10634000D0E2750000000000000000000000000026
:106350000000000000000000A15BFB2DFC7F00009E
:106360000000750000000000000075000000000043
:1063700000000000000000000000750000000000A8
:10638000B0AFFFFF0000000064010000000000004B
:10639000F0C5750000000000B147FB2DFC7F000038
:1063A0006401000000000000000075000000000013
:1063B00032000000000000000000000000000000AB
:1063C000000000000000000060010000000000006C
:1063D000000000000000000060010000000000005C
:1063E0000000000000000000B8AFFFFF0000000048
:1063F000130000000000000000B5040008000000C9
:10640000000000000000000060010000000000002B
:10641000D0E2750000000000B147FB2DFC7F0000BA
:1064200030000000000000000000750000000000C7
:10643000C0AFFFFF000000000000000000000000EF
:106440000000000000000000030000000000000049
:10645000008000000000000068E0AC2BFC7F000022
:106460004022750000000000F0E47500000000000C
:10647000B0E0750000000000B0E075000000000012
:106480004022750000000000000000000000000035
:10649000D0E2750000000000F0E47500000000008C
:1064A00000B504000800000008C7FFFF000000005E
:1064B000C0B0FFFF0000000080A7268001000000A0
:1064C00000B1FFFF0000000030B1FFFF000000003E
:1064D00050B6FFFF0000000069C80F8001000000F7
:1064E000010000000000000030B1FFFF00000000CC
:1064F00000B1FFFF00000000D0B0FFFF000000006F
:10650000000000000000000000000000000000008B
:106510000700000000000000010000000000000073
:106520000040200000000000607D2280010000008B
:106530001800000000000000000000000000000043
:10654000000000000000000000000000000000004B
:10655000A8B0FFFF00000000607D22800100000065
:1065600000000000180000004000000000000000D3
:10657000B8B0FFFF000000000000000000000000B5
:1065800000000000000000006001000000000000AA
:1065900000000000000000000300000001000000F7
:1065A0002600FEFF00000000F0B403000800000019
:1065B00000000000000000000100000000000000DA
:1065C00000000000000000000000000000000000CB
:1065D000260026000000000000B5040008000000AE
:1065E000300000000000000000000000000000007B
:1065F000C0B0FFFF000000004000000000000000ED
:10660000000000000000000000000000000000008A
:106610005008318001000000400831800100000076
:106620000000000000000000EF340300080000003C
:106630000300000000000000E03403000800000038
:10664000000000000000000000000000000000004A
:10665000000000000000000000000000000000003A
:10666000000000000000000000000000000000002A
:10667000000000000000000000000000000000001A
:10668000000000000000000000000000000000000A
:1066900000000000000000000000000000000000FA
:1066A00000000000000000000000000000000000EA
:1066B00000000000000000000000000000000000DA
:1066C00000000000000000000000000000000000CA
:1066D00000000000000000000000000000000000BA
:1066E00000000000000000000000000000000000AA
:1066F000000000000000000000000000000000009A
:106700000000000000000000000000000000000089
:106710000000000000000000ED741B80010000007C
:106720000000000000000000000000000000000069
:106730000000000000000000000000000000000059
:1067400008B5FFFF00000000CCEF0F800100000043
:106750000000000000000000000000000000000039
:10676000000000000000000048F1AD2BFC7F00009D
:106770000000000000000000000000000000000019
:106780000000000000000000000000000000000009
:1067900000100000000000000400000000000000E5
:1067A000000000000000000028540D8001000000DF
:1067B00000000300080000000000010000000000CD
:1067C00000000000000000000000000000000000C9
:1067D00000000000000000000000000000000000B9
:1067E00000000000000000000000000000000000A9
:1067F0000000000000000000ED741B80010000009C
:10680000409C36800100000080383280010000008A
:106810000000010000000000000001000000000076
:10682000E0340300080000007A3E0E800100000002
:106830000C00000000000000B0340100080000005F
:106840000000000000000000959A0F800100000089
:106850000200000000000000050000000000000031
:106860000100000000000000011000000000000016
:10687000E034030008000000F2480480010000003A
:1068800003000000000000000110000000000000F4
:10689000E034030008000000F2480480010000001A
:1068A00000000000000000000500000000000000E3
:1068B00000C7FFFF00000000B03401000800000026
:1068C00028C8FFFF00000000A05104800100000064
:1068D0000100000000000000B034010008000000CA
:1068E00028C8FFFF00000000734F04800100000073
:1068F00000C7FFFF000000000110000000000000C2
:1069000060C6FFFF00000000B03401000800000076
:1069100028C8FFFF00000000050000000000000084
:10692000B0340100080000003EFD0F8001000000AF
:1069300000C7FFFF00000000011000000000000081
:10694000400831800100000000000000000000004D
:10695000B0C7FFFF000000000000000000000000C2
:106960000000000000000000000000000000000027
:106970000000000000000000000000000000000017
:106980000000000000000000000000000000000007
:106990000000000000000000D0B402000800000069
:1069A000C0B4010008000000E0340300080000004B
:1069B0000000000000000000B434010008000000E6
:1069C000400831800100000008C7FFFF0000000000
:1069D000000000000B0000000000000000000000AC
:1069E0000000000000000000B434010008000000B6
:1069F0000000000000000000000000000000000097
:106A00000000000000000000000000000000000086
:106A10000000000000000000000000000000000076
:106A20000000000000000000000000000000000066
:106A30000000000000000000000000000000000056
:106A40000000000000000000000000000000000046
:106A50000000000000000000030000000100000032
:106A6000B8FD0F800100000050B4FFFF00000000DF
:106A70000000000000000000000000000000000016
:106A80000000000000000000000000000000000006
:106A900000000000000000000000000000000000F6
:106AA00000000000000000000000000000000000E6
:106F000000000000000000004CDFFB2DFC7F0000B3
:106F10000000000000000000000000000000000071
:106F20000000090000000000480709000000000000
:106F30000000000000000000000000000000000051
:106F400000000000000000001D0000000000000024
:106F500000000000000000005007090000000000D1
:106F60000000000000000000010000000000000020
:106F700040070900000000000000000000000000C1
:106F80000000000000000000000000000000000001
:106F90005001090000000000000000000000000097
:106FA0001D000000000000007F0000000000000045
:106FB000F00D0900000000009164FB2DFC7F000033
:106FC00000000900000000000000000000000000B8
:106FD00040070900000000001D0000000000000044
:106FE0001D000000000000001D0000000000000067
:106FF00050010900000000001D000000000000001A
:107000000101000000000000000109000000000074
:1070100088000000000000007F0000000000000069
:107020005007090000000000000000000000000000
:1070300000000000010000001D0000000000000032
:107040007F000000000000000000000000000000C1
:107050000000000000000000000000000000000030
:107060000000000000000000000000000000000020
:1070700000000000000000004007090000000000C0
:107080000000000000000000000000000000000000
:107090001D000000000000000000000000000000D3
:1070A00000000000000000007F0000000000000061
:1070B00000000000000000008800008800000000C0
:1070C00000000000000000000000000000000000C0
:1070D0000000000000000000880000000000000028
:1070E00000000000000000001D00001D0000000066
:1070F0000000000000000000000000000000000090
:10710000000000000000000000000000000000007F
:10711000000000000000000000000000000000006F
:10712000000000000000000000000000000000005F
:10713000B006000000000000A806000000000000EB
:1071400002000000000000004007090000000000ED
:1071500050070900000000000000000000000000CF
:107160000000000000000000A15BFB2DFC7F000080
:1071700000000900000000000000090000000000FD
:1071800000000000000000000000090000000000F6
:10719000140200000300000008BDFFFF0000000013
:1071A0000A000C000000000050C7FFFF00000000B4
:1071B00000000000000000000000000000000000CF
:1071C0001C0AC52BFB7F00005FE3AA2BFC7F00009D
:1071D0000000000000000000F0BDFFFF0000000004
:1071E000000000000000000000000000000000009F
:1071F000010000000000000000000000000000008E
:107200000200000000000000205BD12BFC7F00008A
:10721000000000000000000000000000000000006E
:107220005007090000000000B147FB2DFC7F000063
:107230000200000000000000000009000000000043
:10724000000000000000000000000000000000003E
:107250000000000000000000A80600000000000080
:1072600000000000000000008E89F92DFC7F000066
:107270005007090000000000385BD12BFC7F0000A4
:1072800050000000000000000000680069006E006F
:10729000205BD12BFC7F00002F5EAF2BFC7F00001A
:1072A0005007090000000000385BD12BFC7F000074
:1072B00043006F006E00740072006F006C0053009A
:1072C0002800500002000000C43000000000000050
:1072D000E0540000000000008C35000000000000B9
:1072E000C562BB0100000000C00511FCFFFFFFFFED
:1072F0001B0001000000000065000000000000000D
:1073000078070900000000007C0600000000000073
:10731000A1BEFFFF00000000BCC7FA2DFC7F0000EB
:107320000000000000000000060000000000000057
:1073300000BEFFFF000000000061750000000000BB
:10734000000000000000000001000000000000003C
:10735000F0607500000000000D000000000000005B
:1073600000000000000000000E000000000000000F
:107370005001750000000000200000000300000024
:107380000600000000000000800000000000000077
:10739000F0607500000000000294BDF601000000DE
:1073A00006000000000000000000000000000000D7
:1073B00010C1FFFF000000000000000000000000FE
:1073C00000000000000000000700000000000000B6
:1073D00010687500000000000600000000000000BA
:1073E000200375000000000050017500000000003F
:1073F00020C2FFFF000000000D00000000000000A0
:1074000080BFFFFF000000004000000040000000BF
:1074100020037500000000000600000000000000CE
:1074200020C2FFFF0000000000000000000000007C
:10743000400042000000000030C7FFFF00000000D5
:10744000000000000000000000000000000000003C
:1074500000000000000000007000000000000000BC
:1074600070000000000000000000000000000000AC
:107470000E00000E000000009E7575000000000068
:107480000000000000000000F20000F20000000018
:1074900000000000000000000300000300000000E6
:1074A00000000000000000000000000000000000DC
:1074B00000000000000000000E00000E00000000B0
:1074C0000000000000000000F20000F200000000D8
:1074D00000000200000000000300000300000000A4
:1074E00020C0FFFF0000000020C0FFFF00000000E0
:1074F0000200000000000000020000000000000088
:107500000800000000000000000000000000000073
:107510007000000000000000680000000000000093
:107520008000000000000000000075000000000066
:1075300007000000000000004DB4FB2DFC7F0000A0
:1075400000007500000000000A000000FC7F000041
:1075500068000000000000000000000000000000C3
:10756000680375000000000094C0FFFF00000000E9
:10757000A0C1FFFF030000000000000000000000A9
:10758000D0C0FFFF000000008000000000000000ED
:1075900000000000000000000000000000000000EB
:1075A000400042000000000030C7FFFF0000000064
:1075B00002000000000000000000000000000000C9
:1075C000400080000000000020C2FFFF000000001B
:1075D00000000000000000000000000000000000AB
:1075E0003800000001000000000000000000000062
:1075F000000000000000000048F1AD2BFC7F0000FF
:1076000020C2FFFF0000000000000000000000009A
:10761000070400000000000000000000000000005F
:107620000010000000000000040000000000000046
:10763000CCBD0A000000000028540D8001000000AD
:10764000000006000800000000000100000000002B
:107650000061750000000000070400000000000049
:1076600000C2FFFF0000000013CBA92BFC7F00002D
:10767000A0C1FFFF000000003683FC2DFC7F00004E
:10768000205BD12BFC7F00001000010000000000F7
:10769000000001000000000080383280010000007E
:1076A00000000200000000006CC01180010000001A
:1076B00030C4FFFF000000001569178001000000C2
:1076C00000000000000000000000000000000000BA
:1076D00000000000000000003683FC2DFC7F00004D
:1076E00080C9FFFF0000000010B505000800000081
:1076F000F0C2FFFF00000000F8C2FFFF0000000022
:107700000500000000000000E45A118001000000A4
:107710000000000000000000000000000000000069
:1077200030C4FFFF0000000023A50D800100000011
:1077300000000000200000000000000040000000E9
:107740000100000000000000CCBD0A0000000000A5
:1077500084C00E0000000000E9030300ED410000BA
:10776000F0B4010008000000C0B4010008000000EF
:10777000DCC2FFFF00000000E9030300000101007C
:10778000251000000100000001CA11800100000066
:1077900000000000040000000000000001010101E1
:1077A0003700380039000000E0C5FFFF000100008D
:1077B000040000002010000060D8368001000000A6
:1077C0005CB5050008000000E8B5050008000000F1
:1077D00024B505000800000040B5050008000000C1
:1077E000F0B50500080000000000000000000000E7
:1077F0000000000000000000000000000000000089
:107800000000000000000000000000000000000078
:107810000000000000000000F4FCFA2DFC7F0000D6
:1078200000000000EC00000030C4FFFF000000007A
:10783000FC33328001000000100000000000000056
:10784000010000000000000008A60D8001000000FB
:10785000F0C5FFFF0000000075FAFA2DFC7F000064
:10786000001000000000000004000000FC7F000089
:1078700000C5FFFF0000000028540D80010000003B
:1078800000000200080000000000000000000000EE
:10789000F03332800100000095CB11800100000020
:1078A00001000000000000000000000000000000D7
:1078B000F03332800100000030C4FFFF0000000000
:1078C000F8333280010000006D36128001000000A4
:1078D00010B5050008000000F03332800100000000
:1078E000F833328001000000FC33328001000000D8
:1078F0000000000000000000AFE2FC2DFC7F000053
:1079000000000000000000007B370D800100000037
:107910000000000000000000000000000000000067
:10792000E033328001000000E0D736800100000023
:107930000000368000000000E033328001000000CB
:107940000000000000000000000000000000000037
:107950000000000000000000FF380D800100000062
:1079600000C6FFFF0000000005000000000000004E
:10797000FC33328001000000FFFFFFFFFFFFFFFF2D
:10798000A0C5FFFF00000000F248048001000000D5
:10799000F0C5FFFF0000000033C1118001000000AE
:1079A00000000000000000000000000000000000D7
:1079B0000000000000000000AFE2FC2DFC7F000092
:1079C00000000000000000000000000000000000B7
:1079D00000000000000000000000000000000000A7
:1079E0000000000000000000000000000000000097
:1079F0000000000000000000000000000000000087
:107A00000000000000000000000000000000000076
:107A10000000000000000000000000000000000066
:107A20000000000000000000000000000000000056
:107A30000000000000000000000000000000000046
:107A40000000000000000000000000000000000036
:107A50000000000000000000000000000000000026
:107A60000EF73346A633000010A736800100000051
:107A70000000000000000000000000000000000006
:107A800000000000000000000000000000000000F6
:107A900000000000000000000000000000000000E6
:107AA00000000000000000000000000000000000D6
:107AB00000000000000000000000000000000000C6
:107AC00000000000000000006E30AA2BFC7F0000C8
:107AD00000000000000000000000000000000000A6
:107AE0000000000000000000000000000000000096
:107AF0000000000000000000000000000000000086
:107B0000480000000000000001000000000000002C
:107B10000000000000000000000000000000000065
:107B20000000000000000000000000000000000055
:107B300000000000000000006DDBAA2BFC7F0000AD
:107B400000000000000000006001000000000000D4
:107B500010B50500080000003651AB2BFC7F00007B
:107B600001000000000000004C5E0C8001000000DD
:107B7000409C368001000000000000000000000072
:107B8000D0C6FFFF0000000050C7FFFF000000004C
:107B900002000000000000000000000000000000E3
:107BA0000000000000000000E0333280010000000F
:107BB00000000000000000000200000000000000C3
:107BC00010B50500080000000E210C800100000027
:107BD000A1180000000000000100000000000000EB
:107BE00001000000000000004CC7FFFF0000000083
:107BF000000000000000000006000000437CCADE18
:107C00000000000000000000000000000100000073
:107C1000000000000300000000C9FFFF000000009A
:107C2000409C368001000000409C3680020000002D
:107C30000D0AFFFF00000000C9AF0B80010000002B
:107C40003000000000000000000000000000000004
:107C50000000000000000000000000000300000021
:107C60000000000000000000000000000000000014
:107C700000000000000000006E30AA2BFC7F000016
:107C800000000000000000000000000000000000F4
:107C90000000000000000000547B34465195D801DC
:107CA00000000000DE19D9012FB263705195D80190
:107CB000480000000000000001000000000000007B
:107CC00000000000000000000000000000000000B4
:107CD00000000000000000000000000000000000A4
:107CE0000000000000000000000000000000000094
:107CF00000000000000000001A0000005C006300AB
:107D000010B5050008000000290500000000000073
:107D100078D128800100000086B20B8001000000AD
:107D2000409C368001000000004000000000000080
:107D300000000000010000009804000000000000A6
:107D400080D6FFFF0000000078D1288001000000ED
:107D500008000380010000006DDBAA2BFC7F0000FF
:107D600080D6FFFF00000000409C3680010000002C
:107D700000000000000000006060158001000000AD
:107D800080A7268001000000D6650C80000000005E
:107D900000000000000000000000000000000000E3
:107DA000C83B15800100000080C8FFFF00000000F4
:107DB000A0C9FFFF00000000B5B21580010000005F
:107DC000E0BC3FFE03000000535F1580010000008F
:107DD000000000000000000097CAFFFF0000000044
:107DE000300E2380010000000100000000000000B0
:107DF00080D6FFFF0000000062E810800100000054
:107E00000100000000000000010000000000000070
:107E1000010000000000000080D6FFFF000000000D
:107E20008CC9FFFF00000000300E2380010000001D
:107E300080D6FFFF000000008F641B80010000005F
:107E400080D6FFFF0000000016931B800100000099
:107E50000A000000000000005C01000000000000BB
:107E600080D6FFFF000000000100000001000000BC
:107E700097CAFFFF000000000100000000000000A2
:107E800090C9FFFF0000000001000000000000009A
:107E900000000000000000000000000000000000E2
:107EA000C83B158001000000000000000000000039
:107EB00001000000000000000000000000000000C1
:107EC000D0CAFFFF00000000B0CBFFFF00000000A1
:107ED0000300000000000000EA641B8001000000B5
:107EE000300E2380010000000100000000000000AF
:107EF00080D6FFFF00000000D81F31FE0300000005
:107F0000300E23800100000008D03FFE0300000077
:107F1000C0641B80010000007B1819800100000074
:107F20008CCAFFFF0000000008D03FFE03000000E5
:107F3000030000000000000000000000000000003E
:107F400001000000000000004C7934FE0300000036
:107F5000C83B15800100000030CAFFFF0000000090
:107F60000000000000000000B5B215800100000014
:107F7000479A4100010000330100000000000000AA
:107F800090CAFFFF00000000020000002000000077
:107F900070CAFFFF00000000021000000100000096
:107FA0000A00000000000000AEDB36800100000087
:107FB000010000000000000008D03FFE03000000A8
:107FC00003000000000000000000000000000000AE
:107FD000B0CBFFFF00000000D0BB3FFE030000005D
:107FE000C0CBFFFF00000000000000000000000008
:107FF00030CCFFFF000000004080000000000000C7
